:040000008A11112828
:10000800FE00030EFA000408FB000A08FC00831235
:1000180003137F08FD008A15142E8A1113288313F1
:100028002030840047308A15DE228A11A0308400EF
:10003800C0308A15DE228A11831603138A15CA2254
:100048008A11C0008A15CB228A11C1008A15CC22D8
:100058008A11C2008A15CD228A11C3008A15CE22C0
:100068008A11C4008A15CF228A11C500831203138E
:100078008A15C6228A11EC008A15C7228A11ED005A
:100088008A15C8228A11EE008A15C922EF00830159
:100098008A114E288A153E238A118A15E6228A116A
:1000A8008A150B238A118A1551238A118A15FB2276
:1000B8008A118A15D7228A118A15D0228A118A159F
:1000C800F0228A118A11EB208A11643083120313FB
:1000D800B3000030B400061686128B17831220086E
:1000E8008A1100218A118312031321088A11002121
:1000F8008A118312031322088A1100218A11831698
:1001080003134508440403197228C401C501393092
:1001180083120313E8006808D5003408D701D7070D
:100128003308D601D6073A08D901D9073908D801C2
:10013800D807AC308A111C218A1183120313EA01F3
:10014800EB016A08E8006808BF003D09E8002B08D1
:10015800840083172C1C83136808800580303F04B3
:10016800E8000030E9000430FF00690DE90CE80CF4
:10017800FF0BB92868080F398A15AE258A11831232
:1001880003133F0880380F398A15AE258A11AC3021
:1001980083120313CC000030CD008A1564278A111E
:1001A800831203131F152130E800E80BD9288312A6
:1001B80003131F111F1D72281E08A401A40783160C
:1001C80003131E0883120313A301A30772284A30DE
:1001D8008A157B268A11803083120313D9005908A7
:1001E800CF004030DA005A08D00000308A117F2250
:1001F8008A118A1512240800FF0001308A007F083E
:10020800820705298A157F2B8A15A22B8A155B2D53
:100218008A15BD2C8A11772D8A150A2D8A11962CDC
:100228008A11B52B8A15652B8A11F12F8A152B2B6C
:1002380083120313E4005630DA005A08DD00013057
:1002480083120313D507FF30550784008A150A2047
:100258008A11DA005A08E700E7080319782A6708BC
:10026800253A031943296708DA00640884005A0804
:10027800831380000130DA005A08E4072329E501D6
:10028800E601DF01550884008A150A208A118A15BB
:100298001B238A11031C8A2983120313E501E60133
:1002A8000A3083120313C7000030C8006608CA0169
:1002B800CA076508C901C9078A15C5238A118312A7
:1002C80003134808E601E6074708E501E50755086E
:1002D80084008A150A208A11D03EDA00FF300318FC
:1002E8000030DB005A08E5070318E60A5B08E60752
:1002F8000130DA005A08D507550884008A150A2003
:100308008A118A151B238A11031854290130831274
:100318000313D507FF30550784008A150A208A1170
:10032800E700003A0319782A643A03199F290D3A1D
:1003380003199F292329831203135D08840083135B
:100348000008E000840A0008E1000230DA005A08D8
:10035800DD07E11FB8290330DA005A08DF04E00995
:10036800E109E00A0319E10AE701E70A6708053A23
:100378000319DB296708DA005A070D3E84008A153D
:100388000A208A11DB008A150A208A11DC005C0821
:100398006102031DD1295B086002031CDB290130BF
:1003A800DA005A08E7076708053A031DBE296608F8
:1003B80065040319E9295F0803390319E929FF309E
:1003C800E5070318E60AFF30E6076708DA00DB01ED
:1003D800DA1BDB035B08803ADC006608803A5C02C3
:1003E800031DF82965085A020318082A8312031303
:1003F8006708DA00DB01DA1BDB035A08E5025B0851
:10040800031CE603E6020C2A83120313E501E60146
:10041800660865040319252A2030DA006408840078
:100428005A08831380000130DA005A08E407FF30C5
:10043800E5070318E60AFF30E60766086504031DAA
:10044800102A5F0803390319342A2D30DA006408AA
:1004580084005A08831380000130DA005A08E40740
:100468006708DA005A08DE00FF30DA005A08DE07AB
:100478005E08FF3A031923290A30CF000030D00064
:100488005E08DA005A070D3E84008A150A208A1190
:10049800C7008A150A208A11C8006108CA01CA075C
:1004A8006008C901C9078A157D248A1183120313BC
:1004B8004808D201D2074708D101D1078A15472435
:1004C8008A11831203134F08303EDB005B08E700F4
:1004D8006708DA00640884005A0883138000013032
:1004E800DA005A08E407382A8312031364088400E0
:1004F80083138001080083120313D500D51C862AB4
:10050800F030872A0F30D3000030D4005308D100D0
:100518005108BB005008D1005108BC004F08D10059
:100528005108BD00551C9C2A0030A60006309F2AA1
:100538000030A6000530A500551DA62A0030AC00E5
:100548000630A92A0030AC000530AB00D51DB02A12
:100558000030AA000630B32A0030AA000530A900EE
:10056800551CBA2A0030A8008630BD2A0030A800E1
:100578008530A700551DC62A003083160313A30033
:100588008630CB2A003083160313A3008530A200DF
:1005980083120313D51DD62A003083160313A10036
:1005A8008630DB2A003083160313A1008530A000B3
:1005B8000030831203132C06031DE42A05302B0692
:1005C800031DEE2A09304F020318FD2A4F09D100F6
:1005D8005108FA2A403083124F02031CFD2A4F08A3
:1005E800D1000310510CFF3AD200520883160313AE
:1005F8009B05003083122A06031D042B05302906AB
:10060800031D0E2B0930500203181D2B5009D10071
:1006180051081A2B403083125002031C1D2B50081E
:10062800D1000310510CFF3AD2005208831603136D
:100638009B05003083122606031D242B0530250652
:10064800031D2C2B3B080F3A031D2C2B3B093A2B7F
:10065800003083122606031D332B06302506031DA2
:100668003F2B3B08F03A031D3F2B9F30D100510828
:10067800831603139B0583123C09D10083160313C9
:10068800200884008317211C831383120313510845
:1006980080053D09D10083160313220884008317BF
:1006A800231C831383120313510880052708840031
:1006B8008317281C83130008D1005108BE003C0989
:1006C800D1002908840083172A1C83135108800548
:1006D8003D09D1002B08840083172C1C8313510873
:1006E80080051430D2007930D100D10B792BD20B90
:1006F800792B7E2B831203133D09D1002B0884002C
:1007080083172C1C83135108800503308A15AE25E6
:100718008A11073083120313D2007D30D100D10B28
:10072800932BD20B932B03308A15AE258A112430D4
:1007380083120313D100D10B9F2B000003308A15BD
:10074800AE258A11103083120313D100D10BAA2BC6
:10075800000002308A15AE258A1103308A11F4266A
:100768000800831203134508013A031D0800C50158
:1007780046080B3A031DCF2B3808B401B4073708D5
:10078800B301B3078A1512240B3083120313D9005F
:100798005908A10008000A30460203180800380862
:1007A800C801C8073708C701C7070A30C9000030A1
:1007B800CA008A15C5238A118312031346084707FE
:1007C800B70048080318480AB8004030DB0000307A
:1007D800DC005B080D38D9005908BF003D09D90075
:1007E8002B08840083172C1C83135908800580303C
:1007F8003F04D9000030DA000430FF005A0DDA0C4B
:10080800D90CFF0B022C59080F398A15AE258A110D
:10081800831203133F0880380F398A15AE258A11D1
:10082800831203133D08D9002B08840083172C1C5E
:100838008313590880044608303ED9000030031855
:100848000130DA000430FF005A0DDA0CD90CFF0B26
:10085800282C59080F398A15AE258A1183120313DB
:100868004608303E0F398A15AE258A1101308312A9
:100878000313D9005908BF073F1E912CBF1B602CDA
:10088800DD01DE015D08D9005908BF003D09D90026
:100898002B08840083172C1C83135908800580308B
:1008A8003F04D9000030DA000430FF005A0DDA0C9A
:1008B800D90CFF0B5A2C7F2C403083120313DF0016
:1008C8000030E0005F08D9005908BF003D09D90091
:1008D8002B08840083172C1C83135908800580304B
:1008E8003F04D9000030DA000430FF005A0DDA0C5A
:1008F800D90CFF0B7A2C59080F398A15AE258A11A5
:10090800831203133F0880380F398A15AE25E0306B
:1009180083120313D9005908BF051130D9005908AB
:10092800A1000800831203134508013A031D0800BB
:10093800C50146080B3A031DB02C3808B401B407AA
:100948003708B301B3078A1512240B308312031337
:10095800D9005908A10008000A3046020318080007
:100968003808C801C8073708C701C7070A30C900CF
:100978000030CA008A15C5238A118312031346085A
:100988004707B70048080318480AB8004030DB009A
:100998000030DC005B080C38D9005908BF003D095D
:1009A800D9002B08840083172C1C83135908800551
:1009B80080303F04D9000030DA000430FF005A0DBF
:1009C800DA0CD90CFF0BE32C59080F398A15AE2520
:1009D8008A11831203133F0880380F398A15AE2510
:1009E8008A11831203133D08D9002B08840083174A
:1009F8002C1C8313590880044608303ED900003067
:100A080003180130DA000430FF005A0DDA0CD90C53
:100A1800FF0B092D59080F398A15AE258A11831243
:100A280003134608303E0F398A15AE258A11013066
:100A380083120313D9005908BF073F1E722DBF1B2D
:100A4800412DDD01DE015D08D9005908BF003D09CF
:100A5800D9002B08840083172C1C831359088005A0
:100A680080303F04D9000030DA000430FF005A0D0E
:100A7800DA0CD90CFF0B3B2D602D40308312031389
:100A8800DF000030E0005F08D9005908BF003D09C9
:100A9800D9002B08840083172C1C83135908800560
:100AA80080303F04D9000030DA000430FF005A0DCE
:100AB800DA0CD90CFF0B5B2D59080F398A15AE25B6
:100AC8008A11831203133F0880380F398A15AE251F
:100AD800E03083120313D9005908BF050F30D9003D
:100AE8005908A1000800831203134508013A031DA1
:100AF8000800C5010A304602031808004608CC0061
:100B0800CD014C08B7004D08B8004030CE00003089
:100B1800CF004E080B38CC004C08BF003D09CC0074
:100B28002B08840083172C1C83134C088005803005
:100B38003F04CC000030CD000430FF004D0DCD0C3B
:100B4800CC0CFF0BA22D4C080F398A15AE258A1143
:100B5800831203133F0880380F398A15AE258A118E
:100B6800831203133D08CC002B08840083172C1C28
:100B780083134C0880044608303ECC00003003182C
:100B88000130CD000430FF004D0DCD0CCC0CFF0B17
:100B9800C82D4C080F398A15AE258A118312031304
:100BA8004608303E0F398A15AE258A110130831266
:100BB8000313CC004C08BF073F1E312EBF1B002E6D
:100BC800D001D1015008CC004C08BF003D09CC0031
:100BD8002B08840083172C1C83134C088005803055
:100BE8003F04CC000030CD000430FF004D0DCD0C8B
:100BF800CC0CFF0BFA2D1F2E403083120313D200AA
:100C08000030D3005208CC004C08BF003D09CC008E
:100C18002B08840083172C1C83134C088005803014
:100C28003F04CC000030CD000430FF004D0DCD0C4A
:100C3800CC0CFF0B1A2E4C080F398A15AE258A11D9
:100C4800831203133F0880380F398A15AE25E03028
:100C580083120313CC004C08BF050D30CC004C08A0
:100C6800A100080083120313C401C21342134109EF
:100C7800C7002F0884008317301C8313470880059A
:100C8800C318482E0508492E06084005C700C801A4
:100C98004708AD004808AE004008C700C8012E0844
:100CA8004806031D592E2D084706031D5E2E4213C4
:100CB8000030080042176B2EFE30672EFB30672E7F
:100CC800EF30672EFF30CA000030CB00762E410887
:100CD8000F3A0319602E333A0319622ECC3A0319DE
:100CE800642E662EC901043049020318E12E2F082C
:100CF80084008317301C8313000841044A05C70089
:100D08002F08840083133018831747088000C318FE
:100D18008F2E0508902E06084005C700C801470811
:100D2800AD004808AE004008C700C8012E084806B4
:100D3800031DA02E2D084706031DE12E4B08C800F1
:100D48004A08C7000310C70DC80D01304704CA0080
:100D580000304804CB000330C7004708C4070130FF
:100D6800C7004708C907772E06302D062E04031939
:100D7800E92E05302D062E040319D32E03302D0637
:100D88002E040319DA2E00300800C0302D062E0478
:100D98000319E92EA0302D062E04031DD52E01308F
:100DA800DB2E60302D062E04031DDF2E0230C70017
:100DB8004708C407E92E003008004008073A03191D
:100DC800B82EE73A0319C92EE92E4408013E8400DB
:100DD8008A150A20C7004708C400C2170130080056
:100DE80083120313CE000730CD007D30CC00CC0B2E
:100DF800FB2ECD0BFB2E831203133D09CC002B08D1
:100E0800840083172C1C83134C08800502308A1534
:100E1800AE258A1108308A15AE258A11831203136C
:100E28003D09CC002B08840083172C1C83134C0825
:100E3800800500308A15AE258A1101308A15AE2545
:100E48008A11762F831203133D09CC002B088400E6
:100E580083172C1C83134C08800500308A15AE2597
:100E68008A110C308A15AE258A11862F8312031336
:100E78003D09CC002B08840083172C1C83134C08D5
:100E8800800500308A15AE258A110E308A15AE25E8
:100E98008A11862F831203133D09CC002B08840086
:100EA80083172C1C83134C08800500308A15AE2547
:100EB8008A110D308A15AE258A11862F83120313E5
:100EC8003D09CC002B08840083172C1C83134C0885
:100ED800800500308A15AE258A110F308A15AE2597
:100EE8008A11862F831203134E08003A0319262FFE
:100EF800013A03193A2F033A03194E2F013A0319FD
:100F0800622F622F831203133D09CC002B08840043
:100F180083172C1C83134C08800500308A15AE25D6
:100F28008A1106308A15AE2583120313BF01080003
:100F3800403083120313D7000030D8005708D5007B
:100F48005508BF003D09D5002B08840083172C1CC9
:100F580083135508800580303F04D5000030D60043
:100F68000430FF00560DD60CD50CFF0BB62F5508D4
:100F78000F398A15AE258A11831203133F0880386A
:100F88000F398A15AE258A110130831203136E06B4
:100F98006F04031DD12F6430D42F5B3083120313E9
:100FA800CC008030CD008A1564278A110130831265
:100FB80003136C066D04031DE82F4930CC00803004
:100FC800CD008A1564270800523083120313CC0021
:100FD8008030CD008A15642708008A15EA238A1113
:100FE8000038031D0800153083120313C90049088F
:040FF800A00008004D
:10100000FF1B0A2883137F1883170008840A03191B
:10101000FF0A080008308A000408840A82070034A6
:1010200001340234033404340534063407340834FC
:1010300009340A3400340B34013400340A340034E7
:1010400064340034E8340334103427344F345034DB
:10105000433449344F344E344534533420342A34E5
:1010600020342334203420342034203400345634C7
:1010700041344C344F3452342034523445344634A5
:101080003A3420345F345F345F3420342334003406
:101090007234653466343A3425343334643420345D
:1010A000763461346C343A34253434346434003466
:1010B00031343A344334573420342034203420340B
:1010C000003431343A3443344334573420342034F8
:1010D0002034003430343A34533454344F345034A0
:1010E00020342034003430343A34533454344134CE
:0810F000523454342034003462
:10158C000134003401340034103400340434003499
:10159C00013400340B3083120313C7004708A10039
:1015AC000800153083120313C7004708A000080079
:1015BC0064008001840A0406031900340406DF2A3F
:1015CC00C7308316031381008B160C308312031360
:1015DC0081000800013083120313C7004708A200E2
:1015EC00F930B1000030B20008007B3083120313D5
:1015FC009F008030831603139F00F930831203136E
:10160C00C700C70B072B0A2B080083120313901279
:10161C00101290111011901410148E018F010C10D7
:10162C00831603130C100B13080083120313C8004A
:10163C00C7013A3048020318292B30304802031CEA
:10164C00292BC701C70A470C08008A1136268A15B0
:10165C00003A03190800831203134408CC004C0809
:10166C00C600C501C50A1330CC004C08A000080008
:10167C006630831603138F000F1D422B8312031346
:10168C00850186018030831603139B003F30850053
:10169C00C73086000800831203139701F9308316B4
:1016AC00031392000B30831203139200831603135F
:1016BC008C1083120313950140309700080083129D
:1016CC0003134508013A031D0800C50146080B3AEF
:1016DC00031D08003808B401B4073708B301B30779
:1016EC008A1512240B3083120313D9005908A10058
:1016FC000800831203132408803AFF0080307F0215
:10170C00031D8A2B65302302031C972B0330831295
:10171C000313C7004708A2001930B1000030B20013
:10172C000800013083120313C7004708A200F930E8
:10173C00B1000030B2000800831203132408803A71
:10174C00FF0081307F02031DAD2B99302302031C57
:10175C00BA2B033083120313C7004708A2001930B9
:10176C00B1000030B2000800053083120313C7002B
:10177C004708A2007D30B1000030B200080083128F
:10178C000313CB01CC01471CD12B4908CB07031801
:10179C00CC0A4A08CC0701300310C90DCA0DFF3E14
:1017AC00031DD22B01300310C80CC70CFF3E031DC8
:1017BC00D92B48084704031DC92B4C08C801C8077E
:1017CC004B08C701C7070800831203134109C70060
:1017DC002F0884008317301C831347088005C31817
:1017EC00F92B0508FA2B06084005C700C801470865
:1017FC00AD004808AE004008C700C8012E084806D6
:10180C00031D0A2C2D084706031D0F2C4213003014
:10181C000800421701300800403083120313D70030
:10182C000030D8005708D5005508BF003D09D50039
:10183C002B08840083172C1C8313550880058030DB
:10184C003F04D5000030D6000430FF00560DD60CF6
:10185C00D50CFF0B2C2C55080F398A15AE258A1583
:10186C00831203133F0880380F398A15AE258A1569
:10187C00173083120313CC008030CD008A156427F7
:10188C0008008312031350084F040319762CD4015B
:10189C00D40AD01B5D2C01300310CF0DD00DFF3EB0
:1018AC00031D522C0130D3005308D4074F2C500881
:1018BC005202031D632C4F085102031C6B2C4F0862
:1018CC00D1025008031CD203D20201300310D00CF9
:1018DC00CF0CFF3E031D6C2C0130D402031D5D2C7C
:1018EC005208D001D0075108CF01CF07080083124E
:1018FC000313CC01CD01480847040319B62CCE01C3
:10190C00CE0AC81B952C01300310C70DC80DFF3E25
:10191C00031D8A2C0130CB004B08CE07872C0130DD
:10192C000310CC0DCD0DFF3E031D962C48084A022A
:10193C00031DA22C47084902031CAB2C4708C90203
:10194C004808031CCA03CA024C1401300310C80C0B
:10195C00C70CFF3E031DAC2C0130CE02031D952C91
:10196C004D08C801C8074C08C701C70708008312F7
:10197C0003134508013A031D0800C501C608031DE1
:10198C00D52C6F086E04003003190130D900DA0130
:10199C005908EE005A08EF008A119C2708008312A0
:1019AC0003134608013A031DE92C6D086C04003042
:1019BC0003190130D900DA015908EC005A08ED007E
:1019CC008A119C2708008312031346080B3A031D47
:1019DC0008006F086E040319F62C40309700F82CA1
:1019EC00970186116D086C040319FF2C06168612DC
:1019FC00012D061286168A1512240B30831203133E
:101A0C00D9005908A1000800831203134508013AB4
:101A1C00031D0800C50146080A3A031D4E2D40302F
:101A2C00DB000030DC005B08D9005908BF003D0921
:101A3C00D9002B08840083172C1C831359088005AC
:101A4C0080303F04D9000030DA000430FF005A0D1A
:101A5C00DA0CD90CFF0B2D2D59080F398A15AE2530
:101A6C008A15831203133F0880380F398A15AE2567
:101A7C008A15283083120313CC008030CD008A15D0
:101A8C006427093083120313D9005908A1000800F8
:101A9C0046080B3A031D08008A119C270730831255
:101AAC000313D9005908A10008008312031324085A
:101ABC00803AFF0080307F02031D662D1E3023020A
:101ACC000318752D831203132408803AFF0080300D
:101ADC007F02031D732D4730230203187F2D053021
:101AEC0083120313C7004708A2007D30B1000030F9
:101AFC00B200831203132408803AFF0080307F0267
:101B0C00031D8A2D47302302031C962D03308312AC
:101B1C000313C7004708A2001930B1000030B2000F
:101B2C00831203132408803AFF0080307F02031DC8
:101B3C00A12D1E3023020318080001308312031359
:101B4C00C7004708A200F930B1000030B20008000D
:101B5C0083120313CB00270884008317281C8313DC
:101B6C000008C7004708C9003B08F03A031DCC2DFC
:101B7C004B08C70003300310C70DFF3E031DC12DDA
:101B8C000310470DF039C8004808CB002508840025
:101B9C008317261C83130008C7004708CA003B099B
:101BAC004A05C7004708CA004B084A04C700470843
:101BBC00CB003B09C700270884008317281C83131C
:101BCC0047088005250884008313261883174B08C3
:101BDC0080003C08C7002908840083172A1C831343
:101BEC00470880043C09C7002908840083172A1C75
:101BFC008313470880050330C8009730C700C70B14
:101C0C00052EC80B052E0A2E8312031327088400F9
:101C1C008313281883174908800008000B198B1EA2
:101C2C006D2E0B110C308100043083160313420609
:101C3C004304031D5B2E0130C2070318C30A003096
:101C4C00C307831203130F08BA01BA070E08B901B0
:101C5C00B9078E018F013909F8003A09F900F80A21
:101C6C000319F90A3308780783160313A8008312A3
:101C7C00031334080318340A790783160313A900D5
:101C8C002908F101F1072808F001F0078A15EF2661
:101C9C008A15710883160313A701A7077008A601FC
:101CAC00A60726088312031395001030831603131E
:101CBC0040064104031D6F2E0130C0070318C10AF2
:101CCC000030C1070130C4000030C5006F2E8B01FD
:101CDC000B107D088312FF007C088A007B088400AF
:101CEC007A0E8300FE0E7E0E090083120313CB00C6
:101CFC004B08C7004708C3004B1C882E0030B000AF
:101D0C0006308B2E0030B0000530AF004B1D902EEE
:101D1C00F030912E0F30C9000030CA004908C700BE
:101D2C004708C100CB1CA02E003083160313A5005E
:101D3C000630A52E003083160313A5000530A40031
:101D4C00B12E07308312AD2E3830AD2EE030C700E7
:101D5C004708C000C62E83124B083839C700C8018B
:101D6C004808003A0319BB2EC62E4708083A031937
:101D7C00A72E183A0319AA2E083A0319AC2EC62E10
:101D8C00C318CF2E4008C7004708831603138504D9
:101D9C00DD2E83124008C700470883160313860400
:101DAC0083120313431FDD2E831603138113831237
:101DBC00431CE72E4109C700470883160313860509
:101DCC00080083124109C7004708831603138505D1
:101DDC000800831603132A09F2002B09F300F20AF8
:101DEC000319F30A70087207F40071080318710ADA
:101DFC007307F5000310F40DF50D0310F40DF50D3C
:101E0C0070087407F60071080318710A7507F7005B
:101E1C008312031335087607B50036080318360A03
:101E2C007707B600710883160313AB01AB07700874
:101E3C00AA01AA07831203133208F3003108F20037
:101E4C00F20EF30EF030F30572080F39F304F03094
:101E5C00F2057308803AF4003608803A7402031DC8
:101E6C00392F3508720203184E2F831203133208D0
:101E7C00F3003108F200F20EF30EF030F3057208A5
:101E8C000F39F304F030F2057208B5007308B60090
:101E9C0083120313B61F542FB501B6013608F30095
:101EAC003508F2000430FF00730DF30CF20CFF0B3D
:101EBC005A2F7208F0007308F10008008312031304
:101ECC00D40154084C0784004D0803184D0AFF0038
:101EDC008A1500208A150038031908003D08CE0029
:101EEC002B08840083172C1C83134E088004540881
:101EFC004C0784004D0803184D0AFF008A1500207A
:101F0C008A15CE0004300310CE0CFF3E031D892F22
:101F1C004E080F398A15AE258A15831203135408FF
:101F2C004C0784004D0803184D0AFF008A15002049
:101F3C008A150F398A15AE258A15013083120313C1
:101F4C00CE004E08BF073F1EFB2FBF1BC92FD00171
:101F5C00D1015008CE004E08BF003D09CE002B0821
:101F6C00840083172C1C83134E08800580303F049B
:101F7C00CE000030CF000430FF004F0DCF0CCE0C44
:101F8C00FF0BC32FE82F403083120313D200003015
:101F9C00D3005208CE004E08BF003D09CE002B08DE
:101FAC00840083172C1C83134E08800580303F045B
:101FBC00CE000030CF000430FF004F0DCF0CCE0C04
:101FCC00FF0BE32F4E080F398A15AE258A158312A5
:101FDC0003133F0880380F398A15AE258A15E03077
:101FEC0083120313CE004E08BF050130CE004E08FD
:041FFC00D407672F70
:04400E0038EFFCFF8C
:00000001FF
