:040000008A110F282A
:10000800FE00030E83120313C7000A08C8007F0806
:10001800C9008A115F2E8A1111282030FC01FD01C8
:100028008313840047308A1511278A11A030840071
:10003800C0308A15112783160130C0000430C10171
:10004800C2000130C301C400C5018312E900EA01FE
:10005800EB000030EC0183018A158D2FFF1B3C2833
:1000680083137F1883170008840A0319FF0A0800FE
:1000780000308A000408840A8207003401340234FC
:1000880003340434053406340734083409340A3494
:1000980000340B34013400340A340034643400343E
:1000A800E8340334103427344F345034433449345B
:1000B8004F344E344534533420342A3420342334D6
:1000C80020342034203420340034563441344C3425
:1000D8004F34523420345234453446343A34203480
:1000E8005F345F345F342034233400347234653431
:1000F80066343A3425343334643420347634613405
:100108006C343A34253434346434003430343A347A
:100118005334543441345234543420340034303459
:100128003A34533454344F34503420340034313456
:100138003A344334433457342034003431343A3475
:10014800433457342034003432343A344B34203476
:100158000034E2208A110318B6288312D7208A11A6
:100168000318BD28053083120313A2007D30B500A3
:10017800B6018312D7208A11031CC92803308312C1
:100188000313A2001930B500B60183120313E2204D
:100198008A1103180800013083120313A200F930F2
:1001A800B500B601080003132408803AFF00823026
:1001B8007F02031D08003E30230208002408803A0D
:1001C800FF0080307F02031D0800F530230208007D
:1001D800450B08000A30C50146020318FB284608EB
:1001E8008316C0001530C1018312A1000800113028
:0401F800A10008005A
:10020000FF0001308A007F08820705298A15572FD1
:100210008A15722F8A11AD288A113B298A11CC2A9E
:100220008A1174298A11522B8A15452F8A11EC28BC
:100230008A11072B8A1120298A11D12F8A11352F73
:10024000450B0800C50146080B3A031D08003A0893
:10025000B8003908B7003D240B30A10008004A302F
:1002600095248A1180308312D2004030D3000030B0
:1002700002228A113D2C450B0800C501C608031D4A
:1002800049296C086B04003003190130EB00EC01C4
:100290009B29460B53296A08690400300319013071
:1002A000E900EA0148294608023A031D5A290F309D
:1002B000A100080046080B3A031D08006C086B04F7
:1002C000031965290C3097006729970186116A0880
:1002D000690403196E2906168612702906128616FD
:1002E0003D240B30A1000800450B0800C50146085D
:1002F0000A3A031D93294030C00052248A11400855
:100300008038DA005A0E0F39F4238A1140088038F9
:100310000F39F4238A112830CF008030D000C82153
:100320000930A100080046080B3A031D08009B2174
:100330000730A10008004030C00052248A11400854
:100340008038D700570E0F39F4238A1140088038BF
:100350000F39F4238A116B036C04031DB129493052
:10036000B2295230CF008030D000C8218A116903F1
:100370006A04031DBD296130BE295A30CF00803088
:10038000D000C8218A116730CF008030D000C82942
:10039000D60164248A1132208A110038031908001A
:1003A0002D08840083172E1C83133F0880046424C7
:1003B0008A1132208A11D100510E0F39F4238A118B
:1003C00064248A1132208A110F39F4238A11C00A59
:1003D000401E002AC01BEE29C001F0294030C00099
:1003E00052248A1140088038D100510E0F39F4236D
:1003F0008A11400880380F39F4238A11E030C00593
:10040000D60AC929D800D81C072AF030082A0F308C
:10041000D600D701BD005308BE005208BF00581CCB
:10042000132A0630142A0530A601A500581D1A2AE1
:1004300006301B2A0530AE01AD00D81D212A06303A
:10044000222A0530AA01A900581C282A8630292A08
:100450008530A801A700581D2F2A8630302A853004
:10046000B001AF00D81D362A8630372A8530AC015E
:10047000AB0000302E06031D3F2A05302D06031D5C
:10048000472A093052020318502A52094E2A403096
:100490005202031C502A0310520CFF3A83169B058C
:1004A000003083122A06031D572A05302906031D32
:1004B0005F2A093053020318682A5309662A40301C
:1004C0005302031C682A0310530CFF3A83169B0542
:1004D000003083122606031D6F2A05302506031DF2
:1004E000772A3D080F3A031D772A3D09842A0030F8
:1004F0002606031D7D2A06302506031D862A3D0893
:10050000F03A031D862A9F3083169B0583122B0821
:10051000840083172C1C83133E0980052F08840058
:100520008317301C83133F09800527088400831735
:10053000281C8313290875248A1152248A11143027
:10054000D5007930D400D40BA32AD50BA32AA82A2E
:100550008312031352248A110330F4238A110730C3
:10056000D5007D30D400D40BB32AD50BB32A033089
:10057000F4238A112430D400D40BBC2A00000330A9
:10058000F4238A111030D400D40BC42A00000230A6
:10059000F4238A1103309D2B450B08000A30C50156
:1005A0004602031808004608B9004B30BA01C000E3
:1005B00052248A118F248A11F4238A11400880382A
:1005C0000F39F4238A115A248A11CF004F0E0F39A4
:1005D000F4238A114608303E0F39F4238A11C00AE9
:1005E000401E042BC01BF62AC001F82A4030C00070
:1005F00052248A118F248A11F4238A1140088038EA
:100600000F39F423E030C0050D30A1000800450B80
:100610000800C50146080B3A031D162B3A08B8001E
:100620003908B7003D240B30A10008000A3046020B
:10063000031808003A087C248A11F2258A116C24D8
:100640008A114D30C00052248A1189248A11F42362
:100650008A11400880380F39F4238A115A248A11EC
:10066000DA005A0E0F39F4238A114608303E0F394A
:10067000F4238A11C00A401E4F2BC01B412BC0011E
:10068000432B4030C00052248A1189248A11F4235C
:100690008A11400880380F39F423E030C005153046
:1006A000A1000800450B0800C50146080B3A031DD0
:1006B000612B3A08B8003908B7003D240B30A1007F
:1006C00008000A304602031808003A087C248A1100
:1006D000F2258A116C248A114C30C00052248A11F0
:1006E00083248A11F4238A11400880380F39F423B7
:1006F0008A115A248A11DA005A0E0F39F4238A110A
:100700004608303E0F39F4238A11C00A401E9A2B46
:10071000C01B8C2BC0018E2B4030C00052248A118C
:1007200083248A11F4238A11400880380F39F42376
:10073000E030C0051330A1000800D1000730D00020
:100740007D30CF00CF0BA22BD00BA22B8312031333
:1007500052248A110230F4238A110830F4238A11BA
:1007600052248A110030F4238A110130F4238A11B3
:10077000DD2B52248A110030F4238A110C30F4232B
:100780008A11EB2B52248A110030F4238A110E3087
:10079000F4238A11EB2B52248A110030F4238A119E
:1007A0000D30F4238A11EB2B52248A110030F423EC
:1007B0008A110F30F4238A11EB2B5108003A0319E8
:1007C000B92B013A0319C22B033A0319CB2B013A77
:1007D0000319D42BD42B52248A110030F4238A110C
:1007E0000630F423C001080083120313CE0027084B
:1007F00084008317281C83130008CC003D08F03ABE
:10080000031D072CF030CE0ECE05F030CE052508A6
:1008100084008317261C83130008CD003D09CD05F5
:100820004D08CE04270884008317281C83133D0934
:100830008005250884008313261883174E0880003E
:100840002908840083172A1C83133E088004290882
:1008500075248A110330CB009730CA00CA0B2E2CA6
:10086000CB0B2E2C332C8312031327088400831305
:10087000281883174C08800008004030C00052241C
:100880008A1140088038D700570E0F39F4238A1197
:10089000400880380F39F4238A111730CF00803098
:1008A000D000C8292D08840083172E1C83133F090C
:1008B000800508002D08840083172E1C83133F0831
:1008C00080044608303E080056084F078400500850
:1008D0000318500AFF00080046084A07B900003014
:1008E000031801304B07BA000800840083172A1C44
:1008F00083133E0980050800CB003908CA000A307E
:10090000CC00CD01080040088038DA005A0E0F39BB
:10091000080040088038DA005A0E0F3908004008F5
:100920008038CF004F0E0F390800CE00C3004E1C98
:100930009B2C06309C2C0530B401B3004E1DA22C1C
:10094000F030A32C0F30CC00CD01C200CE1CAB2C5C
:1009500083160630AD2C83160530A101A000B72CFC
:100960000730B52C3830B52CE030C100CC2C8312C8
:100970004E083839CA00CB014B08003A0319C12C84
:10098000CC2C4A08083A0319B02C183A0319B22C97
:10099000083A0319B42CCC2CC318D22C4108831666
:1009A0008504DA2C4108831686048312431FDA2C4F
:1009B000831681138312431CE12C4209831686059A
:1009C00008004209831685050800E5005730DE005F
:1009D0005608D60A84008A113C208A11E800E808EB
:1009E0000319DF2D6808253A0319FA2C65085926E2
:1009F0008A11E82CE601E701E001560884008A111B
:100A00003C208A11E4258A11031C2F2DE601E70101
:100A10000A30CA00CB016708CD006608CC00F22579
:100A20004B08E7004A08E600560884008A113C207B
:100A30008A11D03EDB00FF3003180030DC005B0879
:100A4000E6070318E70A5C08E707D60A5608840099
:100A50008A113C208A11E4258A110318082D5608B2
:100A6000D60A84008A113C208A11E800003A031952
:100A7000DF2D643A0319402D0D3A0319402DE82C5F
:100A80005E08840083130008E100840A0008E20085
:100A9000DE0ADE0AE21F532D0330E004E109E20919
:100AA000E10A0319E20AE801E80A0310680D0D3EA5
:100AB00084008A113C208A11DB008A113C208A11B3
:100AC000DC006202031D662D5B086102031C6D2DB4
:100AD000E80A6808053A031D552D670866040319DE
:100AE000792D600803390319792DFF30E607031CBF
:100AF000E7036808DB00DC01DB1BDC035C08803AF1
:100B0000DD006708803A5D02031D882D66085B02E0
:100B10000318972D831203136808DB00DC01DB1B2D
:100B2000DC03E6025C08031CE703E7029B2D83124B
:100B30000313E601E701670866040319AD2D650894
:100B40008400203083138000FF30E50AE607031C91
:100B5000E70367086604031D9F2D60080339031926
:100B6000B72D650884002D3083138000E50A6808DE
:100B7000DF00DB2D0A30D100D20103105F0D0D3EE6
:100B800084008A113C208A11CA008A113C208A11F3
:100B9000CB006208CD006108CC000B268A114B08FF
:100BA000D4004A08D30035268A115108303EE800A7
:100BB000650859268A11DF035F0FBA2DE82C6508F6
:100BC0008400831380010800CB003A30CA014B0235
:100BD0000318F02D30304B02031CF02DCA01CA0A55
:100BE0004A0C0800CE01CF014A1CFC2D4C08CE0750
:100BF0000318CF0A4D08CF070310CC0DCD0D0310FD
:100C0000CB0CCA0C4B084A04031DF42D4F08CB0033
:100C10004E08CA000800CF01D0014B084A0403194E
:100C2000302ECE01CE0ACB1B192E0310CA0DCB0DD0
:100C3000122E0310CF0DD00D4B084D02031D222E96
:100C40004A084C02031C2C2E4A08CC024B08031CF9
:100C5000CD03CD024F140310CB0CCA0CCE0B192EB2
:100C60005008CB004F08CA0008005208510403196D
:100C7000542ED501D50AD21B412E0310D10DD20D11
:100C80003A2E52085402031D472E51085302031CEA
:100C9000502E5108D3025208031CD403D40203106F
:100CA000D20CD10CD50B412E5408D2005308D100E0
:100CB00008008400680883138000E50A08000B1907
:100CC0008B1EA52E0B110C3081008316A60A03196A
:100CD000A70AA40A0319A50A2608043A2704031D33
:100CE000992EA601A70183120F08BC000E08BB00B5
:100CF0008E018F0138088316A900831237088316E6
:100D0000A80083123B088316A80283123C088316AE
:100D1000031CA903A9022908F7002808F600B12638
:100D20008A11770883160313A3007608A2008312A2
:100D3000950083162408103A2504031DA72EA4014C
:100D4000A501C401C40AC501A72E8B010B10831293
:100D50004908FF0048088A00470E8300FE0E7E0EF9
:100D600009007708F1007608F0002A08F0022B0845
:100D7000031CF103F1024308F3004208F2001C27B0
:100D80008A117008F8007108F9007708F1007608F8
:100D9000F0004108F3004008F2001C278A11700897
:100DA0007807FA0071080318710A7907FB007C08BC
:100DB0007A07FC007D0803187D0A7B07FD00770891
:100DC000AB007608AA0083123608F9003508F8004F
:100DD000F030F80EF90EF90578080F39F904F03003
:100DE000F8057908803AFA007D08803A7A02031DF6
:100DF000FB2E7C08780203180C2F8312031336088D
:100E0000FD003508FC00F030FC0EFD0EFD057C08F1
:100E10000F39FD04F030FC05FD1F102FFC01FD0112
:100E20007D08F7007C08F6000430FF00770DF70C12
:100E3000F60CFF0B162F0800F401F501701C262F8D
:100E40007208F4070318F50A7308F5070310F20D8A
:100E5000F30D0310F10CF00C71087004031D1E2F2C
:100E60007508F1007408F000080041278A11003A63
:100E7000031908004408C6001730C501C50AA000C0
:100E80000800C401330884008317341C831342090B
:100E90008005C3184D2F05084E2F0608C4278A1158
:100EA000031900345D2FFE305A2FFB305A2FEF30DC
:100EB0005A2FFF30CD00CE01682F42080F3A031998
:100EC000532F333A0319552FCC3A0319572F592F63
:100ED000CC01330884008317341C831300084204B8
:100EE0004D05CA00330884008313341883174A0859
:100EF0008000C3187D2F05087E2F0608C4278A119D
:100F0000031DB52F4E08CB004D08CA000130031059
:100F1000CA0DCB0D4A04CD004B08CE000330C407E8
:100F20000430CC0A4C020318B52F692F3108063A59
:100F300032040319BD2F3108053A32040319A62FD4
:100F40003108033A3204031D0034C40AC40ABD2F19
:100F50003108C03A32040319BD2F3108A03A3204D7
:100F60000319A62F3108603AA22F4108073A031946
:100F7000962FE73A0319A82FBD2F4408013E84009D
:100F80008A113C20C40001344105B100B20141087E
:100F9000CA00CB0132084B06031D080031084A067F
:100FA0000800D9278A110038031D08001930A00055
:100FB0000800330884008317341C8313420980051A
:100FC000C318E42F0508E52F06084105B100B2015A
:100FD0004108CA00CB0132084B06031DF12F31082E
:100FE0004A0603190034013473309F0080308316A1
:100FF0009F00F9308312CA00CA0BFC2FFF2F080094
:101DF8000B30A1000800193083120313A00008005B
:101E08000130A200F930B500B6010800C7308100E2
:101E18008B160C3083128100080064008001840A4C
:101E28000406031900340406122F901210129011A0
:101E38001011901410148E018F010C1083160C10C1
:101E48000B13080083129701F930831692000F30A4
:101E58008312920083168C14831295010C3097001C
:101E68000800663083168F000F1D382F83128501F6
:101E78008601403083169B003F308500C7308600BE
:101E88000800450B08000A30C50146020318542F04
:101E980046088316C2001130C3018312A10008004E
:101EA8000F30A10008002408803AFF0083307F0229
:101EB800031D602F33302302031C6A2F0330831263
:101EC8000313A2001930B500B601080001308312CF
:101ED8000313A200F930B500B60108002408803ABF
:101EE800FF0081307F02031D7B2F99302302031CE2
:101EF800852F033083120313A2001930B500B601F1
:101F08000800053083120313A2007D30B500B60126
:101F180008008A1535278A158A150A278A158A1509
:101F280019278A158A1526278A158A11F4278A15EA
:101F38008A15FF268A158A15FC268A158A1504270C
:101F48008A158A112F218A156430B700B801061640
:101F580086128B17831220088A1100218A15831292
:101F6800031321088A1100218A15831203132208FA
:101F78008A1100218A15831603134508440403199E
:101F8800AE2F3930C401C5018312D6003808D800F5
:101F98003708D7003C08DA003B08D900AC308A1172
:101FA800E5248A15C0018A1152248A154008803810
:101FB8008316C600460E0F398A11F4238A15400885
:101FC80080380F398A11F4238A15AC30CF000030DD
:101FD800D0008A11C8218A151F1521308316C60022
:101FE800C60BF42F831203131E08A400A301831643
:081FF8001E088312A304AE2FA2
:04400E0038EFFCFF8C
:00000001FF
