:040000008A11112828
:10000800FE00030E83120313A2000408A3000A08CB
:10001800A4007F08A5008A15AE2D8A111328831322
:100028004430840065308A15FF208A11A03084008E
:10003800CA308A15FF208A11831603138A11FA2001
:100048008A11D5008A11FB208A11D6008A11FC205A
:100058008A11D7008A11FD208A11D8008A11FE2042
:100068008A11D9008A11FF208A11DA00831203133A
:100078008A15ED208A11E5008A15EE208A11E6001E
:100088008A15EF208A11E7008A15F020E80083011D
:100098008A114E288A156E218A118A1507218A111C
:1000A8008A153B218A118A1581218A118A152B21EB
:1000B8008A118A15F8208A118A15F1208A118A1561
:1000C8001E218A118A1595218A116430831603131B
:1000D800B2000030B30083120313061686128B1782
:1000E800831244088A1100218A11831203134508D8
:1000F8008A1100218A118312031346088A110021EC
:100108008A11831603135A08590403197428D9014C
:10011800DA01393083120313C0004008B400831693
:100128000313330883120313B601B60783160313A8
:10013800320883120313B501B50783160313350874
:1001480083120313B801B807831603133408831204
:100158000313B701B707B6308A1120218A11831219
:100168000313C201C3014208C0004008DD005B0957
:10017800C0004F0884008317501C83134008800573
:1001880080305D04C0000030C1000430FF00410D24
:10019800C10CC00CFF0BCB2840080F398A15D4249A
:1001A8008A11831203135D0880380F398A15D42405
:1001B8008A11B63083120313AB000030AC008A15E5
:1001C800BC268A11831203131F152130C000C00BEF
:1001D800EB28831203131E08C801C80783160313EC
:1001E8001E0883120313C701C7077428013400349B
:1001F8000434003401340034FF0001308A007F08E1
:10020800820705298A155A2A8A15812A8A157B2C7C
:100218008A15CC2B8A11072E8A157B2B8A11202D43
:100228008A15ED298A15112A8A11392C8A15AA29C5
:100238008A1511298A155B2983160313D1003530D5
:1002480083120313B900390883160313CA00013057
:1002580083120313B407FF30340784008A118E27F2
:100268008A11B900390883160313D400D408031976
:10027800FC2A5408253A03195529540883120313F4
:10028800B900831603135108840083120313390835
:10029800831380000130B900390883160313D1078E
:1002A8002B29D201D301CC01831203133408840013
:1002B8008A118E278A118A154B218A11031CB629A7
:1002C80083160313D201D3010A3083120313A60045
:1002D8000030A70083160313530883120313A901E0
:1002E800A90783160313520883120313A801A8074A
:1002F8008A1535228A1183120313270883160313DC
:10030800D301D30783120313260883160313D201DC
:10031800D20783120313340884008A118E278A11A6
:10032800D03EB900FF3003180030BA0039088316F0
:100338000313D2070318D30A831203133A08831648
:100348000313D307013083120313B9003908B40724
:10035800340884008A118E278A118A154B218A1144
:1003680003186829013083120313B407FF303407D8
:1003780084008A118E278A1183160313D400003A49
:100388000319FC2A643A0319CD290D3A0319CD291A
:100398002B29831603134A08840083130008CD0011
:1003A800840A0008CE00023083120313B90039080A
:1003B80083160313CA07CE1FEE29033083120313D3
:1003C800B900390883160313CC04CD09CE09CD0A28
:1003D8000319CE0AD401D40A5408053A03191D2A70
:1003E800540883120313B90039070D3E84008A119B
:1003F8008E278A11BA008A118E278A11BB003B0802
:10040800831603134E02031D0F2A831203133A089F
:10041800831603134D02031C1D2A01308312031394
:10042800B900390883160313D4075408053A031D85
:10043800F4295308520403192B2A4C0803390319C9
:100448002B2AFF30D2070318D30AFF30D3075408EA
:1004580083120313B900BA01B91BBA033A08803AE8
:10046800BB00831603135308803A831203133B021D
:10047800031D442A831603135208831203133902F7
:1004880003185C2A83160313540883120313B90054
:10049800BA01B91BBA03390883160313D2028312AF
:1004A80003133A0883160313031CD303D302602AE9
:1004B80083160313D201D301530852040319812A66
:1004C800203083120313B9008316031351088400E4
:1004D800831203133908831380000130B9003908E7
:1004E80083160313D107FF30D2070318D30AFF304E
:1004F800D30753085204031D642A4C08033903190F
:10050800982A2D3083120313B90083160313510858
:100518008400831203133908831380000130B90063
:10052800390883160313D107540883120313B9003B
:10053800390883160313CB00FF3083120313B90065
:10054800390883160313CB074B08FF3A03192B29E5
:100558000A3083120313AE000030AF008316031372
:100568004B0883120313B90039070D3E84008A1122
:100578008E278A11A6008A118E278A11A700831652
:1005880003134E0883120313A901A9078316031343
:100598004D0883120313A801A8078A153B238A1163
:1005A800831203132708B101B1072608B001B00769
:1005B8008A1505238A11831203132E08303EBA00C8
:1005C8003A0883160313D400540883120313B9009E
:1005D8008316031351088400831203133908831305
:1005E80080000130B900390883160313D107A02A07
:1005F80083160313510884008313800108008312B3
:100608000313B400B41C0A2BF0300B2B0F30B200CC
:100618000030B3003208B0003008D9002F08B0000D
:100628003008DA002E08B0003008DB00341C202B1C
:100638000030CA000630232B0030CA000530C9003C
:10064800341D2A2B0030D00006302D2B0030D0006E
:100658000530CF00B41D342B0030CE000630372BC8
:100668000030CE000530CD00341C3E2B0030CC00CD
:100678008630412B0030CC008530CB00341D4A2B0E
:10068800003083160313A30086304F2B00308316E7
:100698000313A3008530A20083120313B41D5A2B41
:1006A800003083160313A10086305F2B00308316B9
:1006B8000313A1008530A0000030831203135006F5
:1006C800031D682B05304F06031D722B09302E02BF
:1006D8000318812B2E09B00030087E2B403083127E
:1006E8002E02031C812B2E08B0000310300CFF3A99
:1006F800B1003108831603139B05003083124E06A0
:10070800031D882B05304D06031D922B09302F023F
:100718000318A12B2F09B00030089E2B40308312FC
:100728002F02031CA12B2F08B0000310300CFF3A36
:10073800B1003108831603139B05003083124A0663
:10074800031DA82B05304906031DB02B59080F3A85
:10075800031DB02B5909BE2B003083124A06031D16
:10076800B72B06304906031DC32B5908F03A031D61
:10077800C32B9F30B0003008831603139B058312E8
:100788005A09B00083160313200884008317211C1C
:10079800831383120313300880055B09B0008316A6
:1007A8000313220884008317231C83138312031363
:1007B800300880054B08840083174C1C83130008FD
:1007C800B0003008DC005A09B0004D0884008317D7
:1007D8004E1C8313300880055B09B0004F08840065
:1007E8008317501C8313300880051430B10079300A
:1007F800B000B00BFD2BB10BFD2B022C83120313A1
:100808005B09B0004F0884008317501C831330081D
:10081800800503308A15D4248A1107308312031304
:10082800B1007D30B000B00B172CB10B172C033082
:100838008A15D4248A11243083120313B000B00B14
:10084800232C000003308A15D4248A111030831217
:100858000313B000B00B2E2C000002308A15D424EC
:100868008A1103308A155827080083120313630876
:10087800013A031D0800E30164080B3A031D592CD3
:10088800580883160313B301B307831203135708D9
:1008980083160313B201B2078A15D0220B308312D4
:1008A8000313B8003808C50008000A3064020318AA
:1008B80008005808A701A7075708A601A6070A3085
:1008C800A8000030A9008A1535228A118312031363
:1008D80064082607D70027080318270AD8004030DD
:1008E800BA000030BB003A080D38B8003808DD00FF
:1008F8005B09B8004F0884008317501C831338081D
:10090800800580305D04B8000030B9000430FF0075
:10091800390DB90CB80CFF0B8C2C38080F398A1517
:10092800D4248A11831203135D0880380F398A157D
:10093800D4248A11831203135B08B8004F0884007B
:100948008317501C8313380880046408303EB800AD
:10095800003003180130B9000430FF00390DB90C1C
:10096800B80CFF0BB22C38080F398A15D4248A1119
:10097800831203136408303E0F398A15D4248A1170
:10098800013083120313B8003808DD075D1E1B2DE4
:10099800DD1BEA2CBC01BD013C08B8003808DD00AD
:1009A8005B09B8004F0884008317501C831338086C
:1009B800800580305D04B8000030B9000430FF00C5
:1009C800390DB90CB80CFF0BE42C092D40308312FB
:1009D8000313BE000030BF003E08B8003808DD0031
:1009E8005B09B8004F0884008317501C831338082C
:1009F800800580305D04B8000030B9000430FF0085
:100A0800390DB90CB80CFF0B042D38080F398A15AD
:100A1800D4248A11831203135D0880380F398A158C
:100A2800D424E03083120313B8003808DD051530EC
:100A3800B8003808C5000800831203136308013A98
:100A4800031D0800E30164080B3A031D402D5808F4
:100A580083160313B301B3078312031357088316CE
:100A68000313B201B2078A15D0220B308312031385
:100A7800B8003808C50008000A30640203180800E6
:100A88005808A701A7075708A601A6070A30A80013
:100A98000030A9008A1535228A11831203136408CD
:100AA8002607D70027080318270AD8004030BA00BD
:100AB8000030BB003A080C38B8003808DD005B0984
:100AC800B8004F0884008317501C8313380880052A
:100AD80080305D04B8000030B9000430FF00390DE3
:100AE800B90CB80CFF0B732D38080F398A15D424AC
:100AF8008A11831203135D0880380F398A15D424AC
:100B08008A11831203135B08B8004F088400831707
:100B1800501C8313380880046408303EB800003045
:100B280003180130B9000430FF00390DB90CB80CB6
:100B3800FF0B992D38080F398A15D4248A1183128E
:100B480003136408303E0F398A15D4248A11013002
:100B580083120313B8003808DD075D1E022EDD1B63
:100B6800D12DBC01BD013C08B8003808DD005B0987
:100B7800B8004F0884008317501C83133808800579
:100B880080305D04B8000030B9000430FF00390D32
:100B9800B90CB80CFF0BCB2DF02D4030831203138A
:100BA800BE000030BF003E08B8003808DD005B0911
:100BB800B8004F0884008317501C83133808800539
:100BC80080305D04B8000030B9000430FF00390DF2
:100BD800B90CB80CFF0BEB2D38080F398A15D42443
:100BE8008A11831203135D0880380F398A15D424BB
:100BF800E03083120313B8003808DD051330B8005D
:100C08003808C5000800831203136308013A031D5E
:100C18000800E3010A306402031808006408AB0006
:100C2800AC012B08D7002C08D8004030AD000030AC
:100C3800AE002D080B38AB002B08DD005B09AB00BC
:100C48004F0884008317501C83132B0880058030BD
:100C58005D04AB000030AC000430FF002C0DAC0C80
:100C6800AB0CFF0B322E2B080F398A15D4248A11AE
:100C7800831203135D0880380F398A15D4248A112A
:100C8800831203135B08AB004F0884008317501CC2
:100C980083132B0880046408303EAB00003003182F
:100CA8000130AC000430FF002C0DAC0CAB0CFF0B7A
:100CB800582E2B080F398A15D4248A11831203134E
:100CC8006408303E0F398A15D4248A110130831202
:100CD8000313AB002B08DD075D1EC12EDD1B902E14
:100CE800AF01B0012F08AB002B08DD005B09AB009A
:100CF8004F0884008317501C83132B08800580300D
:100D08005D04AB000030AC000430FF002C0DAC0CCF
:100D1800AB0CFF0B8A2EAF2E403083120313B100A9
:100D28000030B2003108AB002B08DD005B09AB00D6
:100D38004F0884008317501C83132B0880058030CC
:100D48005D04AB000030AC000430FF002C0DAC0C8F
:100D5800AB0CFF0BAA2E2B080F398A15D4248A1145
:100D6800831203135D0880380F398A15D424E030C4
:100D780083120313AB002B08DD050D30AB002B08E5
:100D8800C500080083120313E201E01360135F0932
:100D9800A600530884008317541C83132608800573
:100DA800E118D82E0508D92E06085E05A600A70169
:100DB8002608D1002708D2005E08A600A70152081D
:100DC8002706031DE92E51082606031DEE2E601383
:100DD800003008006017FB2EFE30F72EFB30F72E90
:100DE800EF30F72EFF30A9000030AA00062F5F0869
:100DF8000F3A0319F02E333A0319F22ECC3A03199D
:100E0800F42EF62EA801043028020318712F530877
:100E180084008317541C831300085F042905A60067
:100E28005308840083135418831726088000E11898
:100E38001F2F0508202F06085E05A600A701260813
:100E4800D1002708D2005E08A600A701520827068D
:100E5800031D302F51082606031D712F2A08A700ED
:100E68002908A6000310A60DA70D01302604A90025
:100E780000302704AA000330A6002608E207013044
:100E8800A6002608A807072F0630510652040319A2
:100E9800792F0530510652040319632F0330510688
:100EA800520403196A2F00300800C030510652045A
:100EB8000319792FA03051065204031D652F013004
:100EC8006B2F603051065204031D6F2F0230A600AD
:100ED8002608E207792F003008005E08073A031950
:100EE800482FE73A0319592F792F6208013E8400E9
:100EF8008A118E27A6002608E200E01701300800B4
:100F0800FF1B8E2F83137F1883170008840A031989
:100F1800FF0A080007308A000408840A82070034A0
:100F280001340234033404340534063407340834F5
:100F380009340A3400340B34013400340A340034E0
:100F480064340034E8340334103427344F345034D4
:100F5800433449344F344E344534533420342A34DE
:100F680020342334203420342034203400345634C0
:100F780041344C344F34523420345234453446349E
:100F88003A3420345F345F345F34203423340034FF
:100F98007234653466343A34253433346434203456
:100FA800763461346C343A3425343434643400345F
:100FB80030343A3453345434413452345434203471
:100FC800003430343A34533454344F3450342034A9
:100FD800003431343A344334433457342034003401
:100FE80031343A34433457342034003432343A34C8
:060FF8004B3420340034EC
:1011DA0001340034013400340B3083120313A600A7
:1011EA002608C5000800193083120313A600260832
:1011FA00C400080064008001840A0406031900344C
:10120A0004060029C7308316031381008B160C309D
:10121A0083120313810008008A15A8228A15003850
:10122A00031D0800193083120313A8002808C400FC
:10123A000800013083120313A6002608C600F930FD
:10124A0083160313B0000030B10008007330831214
:10125A0003139F008030831603139F00F930831213
:10126A000313A600A60B37293A2908008312031391
:10127A009012101290111011901410148E018F01F7
:10128A000C10831603130C100B130800831203139C
:10129A00A700A6013A30270203185929303027023D
:1012AA00031C5929A601A60A260C08008A11C6267B
:1012BA008A15003A03190800831203136208AB0067
:1012CA002B08E400E301E30A1730AB002B08C40043
:1012DA0008006630831603138F000F1D72298312CC
:1012EA000313850186014030831603139B003F30A8
:1012FA008500C73086000800831203139701F9306E
:10130A008316031392000F3083120313920083167D
:10131A0003138C148312031395010C3097000800F1
:10132A004A308A153A258A15803083120313B80089
:10133A003808AE004030B9003908AF0000308A11D1
:10134A0003238A158A15D02208008312031363081F
:10135A00013A031D0800E30164080B3A031D080063
:10136A00580883160313B301B307831203135708EC
:10137A0083160313B201B2078A15D0220B308312E7
:10138A000313B8003808C5000800F401F501701C01
:10139A00D4297208F4070318F50A7308F50701300F
:1013AA000310F20DF30DFF3E031DD5290130031082
:1013BA00F10CF00CFF3E031DDC2971087004031DBB
:1013CA00CC297508F101F1077408F001F00708004B
:1013DA00831203136308013A031D0800E3010A306C
:1013EA00640203180C2A6408A600A70126088316BB
:1013FA000313D70083120313270883160313D80095
:10140A00113083120313A6002608C50008000F3006
:10141A00A6002608C5000800831203136308013AD0
:10142A00031D0800E3010A3064020318302A640825
:10143A00A600A701260883160313D50083120313F7
:10144A00270883160313D600153083120313A60048
:10145A002608C50008001130A6002608C5000800A5
:10146A0083120313AA01AB01261C412A2808AA07E2
:10147A000318AB0A2908AB0701300310A80DA90D00
:10148A00FF3E031D422A01300310A70CA60CFF3EA3
:10149A00031D492A27082604031D392A2B08A701F8
:1014AA00A7072A08A601A6070800831203134808FB
:1014BA00803AFF0083307F02031D652A33304702DA
:1014CA00031C742A033083120313A6002608C600DD
:1014DA00193083160313B0000030B1000800013040
:1014EA0083120313A6002608C600F93083160313D5
:1014FA00B0000030B1000800831203134808803A94
:10150A00FF0081307F02031D8C2A99304702031C99
:10151A009B2A033083120313A6002608C60019303B
:10152A0083160313B0000030B1000800053083129F
:10153A000313A6002608C6007D3083160313B000E5
:10154A000030B1000800831203135F09A600530894
:10155A0084008317541C831326088005E118B72AD0
:10156A000508B82A06085E05A600A7012608D100C4
:10157A002708D2005E08A600A70152082706031D05
:10158A00C82A51082606031DCD2A60130030080018
:10159A00601701300800403083120313B600003090
:1015AA00B7003608B4003408DD005B09B4004F0800
:1015BA0084008317501C83133408800580305D042F
:1015CA00B4000030B5000430FF00350DB50CB40C82
:1015DA00FF0BEA2A34080F398A15D4248A15831294
:1015EA0003135D0880380F398A15D4248A151730F9
:1015FA0083120313AB008030AC008A15BC260800A6
:10160A00831203132F082E040319342BB301B30AD0
:10161A00AF1B1B2B01300310AE0DAF0DFF3E031D98
:10162A00102B0130B2003208B3070D2B2F083102FC
:10163A00031D212B2E083002031C292B2E08B00271
:10164A002F08031CB103B10201300310AF0CAE0C1A
:10165A00FF3E031D2A2B0130B302031D1B2B310849
:10166A00AF01AF073008AE01AE07080083120313BB
:10167A00AC01AD01270826040319742BAB01AB0A90
:10168A00A71B532B01300310A60DA70DFF3E031D08
:10169A00482B0130AA002A08AB07452B013003105A
:1016AA00AC0DAD0DFF3E031D542B27082902031D67
:1016BA00602B26082802031C692B2608A802270883
:1016CA00031CA903A9022C1401300310A70CA60CB1
:1016DA00FF3E031D6A2B0130AB02031D532B2D085D
:1016EA00A701A7072C08A601A6070800831203135F
:1016FA006308013A031D0800E30164080A3A031D5E
:10170A00BF2B4030BA000030BB003A08B800380896
:10171A00DD005B09B8004F0884008317501C83134F
:10172A003808800580305D04B8000030B900043004
:10173A00FF00390DB90CB80CFF0B9E2B38080F3976
:10174A008A15D4248A15831203135D0880380F3949
:10175A008A15D4248A15283083120313AB008030EB
:10176A00AC008A15BC26093083120313B800380866
:10177A00C500080064080B3A031D08008A152224D4
:10178A00073083120313B8003808C5000800831213
:10179A0003136308013A031D0800E301E408031D6B
:1017AA00E42B68086704003003190130B800B90156
:1017BA003808E7003908E8008A152224080083124D
:1017CA0003136408013A031DF82B66086504003008
:1017DA0003190130B800B9013808E5003908E600F4
:1017EA008A1522240800831203136408023A031D8F
:1017FA00032C0F30B8003808C500080064080B3AFB
:10180A00031D08006808670403190E2C0C309700A2
:10181A00102C97018611660865040319172C061601
:10182A008612192C061286168A15D0220B308312BC
:10183A000313B8003808C5000800403083120313A8
:10184A00B6000030B7003608B4003408DD005B0982
:10185A00B4004F0884008317501C83133408800592
:10186A0080305D04B4000030B5000430FF00350D4F
:10187A00B50CB40CFF0B3C2C34080F398A15D42450
:10188A008A15831203135D0880380F398A15D42408
:10189A008A1501308312031367066804031D572C47
:1018AA0049305A2C523083120313AB008030AC00FB
:1018BA008A15BC268A15013083120313650666044D
:1018CA00031D692C61306C2C5A3083120313AB0050
:1018DA008030AC008A15BC268A1567308312031340
:1018EA00AB008030AC008A15BC26080083120313B3
:1018FA004808803AFF0080307F02031D862CF530AD
:10190A0047020318952C831203134808803AFF00F4
:10191A0082307F02031D932C3E3047020318A12C0C
:10192A00053083120313A6002608C6007D308316ED
:10193A000313B0000030B100831203134808803A41
:10194A00FF0082307F02031DAC2C3E304702031C8D
:10195A00BA2C033083120313A6002608C6001930D6
:10196A0083160313B0000030B10083120313480832
:10197A00803AFF0080307F02031DC52CF5304702F4
:10198A0003180800013083120313A6002608C600B4
:10199A00F93083160313B0000030B1000800831237
:1019AA000313AA004B08840083174C1C83130008F6
:1019BA00A6002608A8005908F03A031DF22C2A08A6
:1019CA00A60003300310A60DFF3E031DE72C0310EB
:1019DA00260DF039A7002708AA00490884008317B2
:1019EA004A1C83130008A6002608A90059092905DC
:1019FA00A6002608A9002A082904A6002608AA0083
:101A0A005909A6004B08840083174C1C8313260827
:101A1A0080054908840083134A1883172A0880001E
:101A2A005A08A6004D08840083174E1C8313260803
:101A3A0080045A09A6004D08840083174E1C83139C
:101A4A00260880050330A7009730A600A60B2B2D89
:101A5A00A70B2B2D302D831203134B0884008313FD
:101A6A004C18831728088000080083120313AA0061
:101A7A002A08A6002608E1002A1C472D0030D400B7
:101A8A0006304A2D0030D4000530D3002A1D4F2DD0
:101A9A00F030502D0F30A8000030A9002808A60009
:101AAA002608DF00AA1C5F2D003083160313A50049
:101ABA000630642D003083160313A5000530A400F8
:101ACA00702D073083126C2D38306C2DE030A60053
:101ADA002608DE00852D83122A083839A600A701B8
:101AEA002708003A03197A2D852D2608083A031982
:101AFA00662D183A0319692D083A03196B2D852D9D
:101B0A00E1188E2D5E08A6002608831603138504A5
:101B1A009C2D83125E08A6002608831603138604EA
:101B2A0083120313611F9C2D8316031381138312DF
:101B3A00611CA62D5F09A6002608831603138605D5
:101B4A00080083125F09A600260883160313850579
:101B5A0008000B198B1E1F2E0B110C30810001304F
:101B6A0083160313AA070318AB0A0030AB07013028
:101B7A00A8070318A90A0030A90704302A062B046B
:101B8A00031D112EAA01AB01831203130F0883163A
:101B9A000313B501B507831203130E088316031343
:101BAA00B401B407831203138E018F018316031342
:101BBA00340983120313A000831603133509831211
:101BCA000313A100A00A0319A10A831603133208FA
:101BDA0083120313200783160313AC003308031878
:101BEA00330A83120313210783160313AD002D084A
:101BFA00F701F7072C08F601F6078A152D268A152C
:101C0A00770883160313A701A7077608A601A60774
:101C1A00260883120313950010308316031328062F
:101C2A002904031D212EA801A9010130D900003081
:101C3A00DA00212E8B010B1083122508FF002408DD
:101C4A008A0023088400220E8300FE0E7E0E0900FD
:101C5A00831603132E09F8002F09F900F80A03194D
:101C6A00F90A76087807F00077080318770A7907DF
:101C7A00F1005808F301F3075708F201F2078A1531
:101C8A00CA218A157008FA007108FB007708F10169
:101C9A00F1077608F001F007831603135608F301DB
:101CAA00F3075508F201F2078A15CA218A15700846
:101CBA007A07FC0071080318710A7B07FD0083127A
:101CCA00031355087C07D50056080318560A7D07E2
:101CDA00D600770883160313AF01AF077608AE0163
:101CEA00AE073108F9003008F800F80EF90EF030A6
:101CFA00F90578080F39F904F030F8057908803ABF
:101D0A00FA00831203135608803A7A02031D8F2EB3
:101D1A00550878020318A62E831603133108F90012
:101D2A003008F800F80EF90EF030F90578080F3986
:101D3A00F904F030F805780883120313D5007908FE
:101D4A00D60083120313D61FAC2ED501D60156082E
:101D5A00F9005508F8000430FF00790DF90CF80C69
:101D6A00FF0BB22E7808F6007908F70008008312F4
:101D7A000313B30133082B0784002C0803182C0A19
:101D8A00FF008A1184278A150038031908005B08A6
:101D9A00AD004F0884008317501C83132D0880045C
:101DAA0033082B0784002C0803182C0AFF008A1119
:101DBA0084278A15AD0004300310AD0CFF3E031DC5
:101DCA00E12E2D080F398A15D4248A15831203139C
:101DDA0033082B0784002C0803182C0AFF008A11E9
:101DEA0084278A150F398A15D4248A15013083125B
:101DFA000313AD002D08DD075D1E532FDD1B212FB8
:101E0A00AF01B0012F08AD002D08DD005B09AD0060
:101E1A004F0884008317501C83132D0880058030D7
:101E2A005D04AD000030AE000430FF002E0DAE0C94
:101E3A00AD0CFF0B1B2F402F403083120313B10050
:101E4A000030B2003108AD002D08DD005B09AD009D
:101E5A004F0884008317501C83132D088005803097
:101E6A005D04AD000030AE000430FF002E0DAE0C54
:101E7A00AD0CFF0B3B2F2D080F398A15D4248A1578
:101E8A00831203135D0880380F398A15D4248A1502
:101E9A00E03083120313AD002D08DD050130AD00DB
:101EAA002D08B307BF2E83120313AD000730AC0011
:101EBA007D30AB00AB0B5F2FAC0B5F2F831203138C
:101ECA005B09AB004F0884008317501C83132B084F
:101EDA00800502308A15D4248A1508308A15D4243C
:101EEA008A15831203135B09AB004F08840083171A
:101EFA00501C83132B08800500308A15D4248A15B8
:101F0A0001308A15D4248A15DA2F831203135B0948
:101F1A00AB004F0884008317501C83132B088005DD
:101F2A0000308A15D4248A150C308A15D4248A15CF
:101F3A00EA2F831203135B09AB004F08840083174F
:101F4A00501C83132B08800500308A15D4248A1567
:101F5A000E308A15D4248A15EA2F831203135B09DB
:101F6A00AB004F0884008317501C83132B0880058D
:101F7A0000308A15D4248A150D308A15D4248A157E
:101F8A00EA2F831203135B09AB004F0884008317FF
:101F9A00501C83132B08800500308A15D4248A1517
:101FAA000F308A15D4248A15EA2F831203132D08B9
:101FBA00003A03198A2F013A03199E2F033A03198B
:101FCA00B22F013A0319C62FC62F831203135B09D6
:101FDA00AB004F0884008317501C83132B0880051D
:101FEA0000308A15D4248A1506308A15D42483121F
:061FFA000313DD010800E5
:04400E0038EFFCFF8C
:00000001FF
